:020000040800F2
:100000007806002081010008BB090008B909000832
:1000100000000000000000000000000000000000E0
:10002000000000000000000000000000BF09000800
:100030000000000000000000BD090008C109000820
:100040009301000893010008930100089301000840
:100050009301000893010008930100089301000830
:100060009301000893010008930100089301000820
:100070009301000893010008930100089301000810
:100080009301000893010008930100089301000800
:1000900093010008930100089301000893010008F0
:1000A00093010008930100089301000893010008E0
:1000B00093010008930100089301000893010008D0
:1000C00000F002F800F04CF812A030C808382418EC
:1000D0002D18AC4201D100F043F80FCCA246AB463C
:1000E0000CA730CF2D1B083F3F197C427F1E544484
:1000F0002D090426F441641EAC4201D300F030F80F
:100100000126334200D0FB1A3343984754465D46DC
:10011000DFE7000084120000A4120000103A02D3AE
:1001200078C878C1FAD8520701D330C830C101D598
:1001300004680C6070470000704700000023002432
:1001400000250026103A01D378C1FBD8520700D30E
:1001500030C100D50B6070471FB51FBD10B510BD75
:1001600000F04DF81146FFF7F7FF00F0A7FC00F094
:1001700065F803B4FFF7F2FF03BC00F06BF8000072
:100180000748804707480047FEE7FEE7FEE7FEE72F
:10019000FEE7FEE704480549054A064B70470000A4
:1001A000C9090008C1000008780000207806002076
:1001B000780200207802002001E004C0091F042911
:1001C000FBD28B0701D50280801CC90700D00270CA
:1001D000704700290BD0C30702D00270401C491E93
:1001E000022904D3830702D50280801C891EE3E71D
:1001F0000022EEE70022DFE7704770477047754640
:1002000000F024F8AE46050069465346C008C00019
:10021000854618B020B5FFF7BDFF60BCB646002686
:100220000027C0C5C0C5C0C5C0C5C0C5C0C5C0C504
:10023000C0C5403D490849008D46704710B5044689
:10024000C046C0462046FFF794FF10BD00487047E7
:100250001000002001491820ABBEFEE72600020076
:1002600070470000B0B5044600F00CF80546601C6D
:1002700002D021480078041900F004F8401BA04285
:10028000FAD3B0BD054800687047C0461A480078E8
:1002900002490A68101808607047C04670000020C4
:1002A00080B58548016810220A430260032000F0EF
:1002B00005F800F023F8002080BDC04670B5044664
:1002C0007D20C0000C4E317800F052FF014682487C
:1002D000006800F04DFF00F055FB0125032C08D805
:1002E000002806D10025E84321462A4600F01CF8E4
:1002F0007460284670BDC0460000002082B00948E6
:1003000001680122114301600168114001910199C6
:10031000110742680A434260406808400090009814
:1003200002B0704718100240002805D4032203468B
:1003300093430A4A9A1803E00C220240064BD21853
:100340008007C00E8901C9B28140FF238340106835
:10035000984308431060704714ED00E000E400E0AB
:10036000F0B581B0002846D00446534A13680120F6
:1003700003408B4208D213680126B3430B4313603A
:10038000126832408A4237D1009121688A074B4B6C
:1003900010D54A0706D5072212021B681343474AA5
:1003A0001360464B1A68F0239A43A3681343434AE9
:1003B0001360424BC90722D13F49086801263040EB
:1003C000009A904205D90868B04308600868C007E1
:1003D00012D12078400706D5072000021968814312
:1003E000E068084318601A681007810F3548022931
:1003F00012D2044650E00126304601B0F0BD6168DB
:1004000003290DD01A1F02290FD0012912D1126819
:1004100092030646F0D511E0032926D12A4C3BE091
:100420001A6B92030646E7D508E012689201064669
:10043000E2D503E0126892070646DDD51868032668
:10044000B04308431860FFF71DFF07461C4D1B4BC8
:1004500018680C210140606880008142ACD0FFF731
:1004600011FFC01BA842F2D9C6E70321CB031349F1
:10047000896A0F240C401549095D94021A40240F23
:10048000134D2C5D9A4202D033049A4200E00E488C
:1004900000F06EFE4443094B18680006000F0D493A
:1004A000085CC4400C4804600320FFF707FF0026E7
:1004B000304601B0F0BDC0460020024004100240AA
:1004C0008813000000127A00006CDC02861300081A
:1004D000761300086613000808000020F0B587B006
:1004E00004460120002C00D145E204902078C0078A
:1004F000F94E05940CD071680C200140042900D0FD
:1005000090E03068800303D56068002800D120E1C6
:100510002078800721D570680007800F0ED07068A2
:100520000C210140082900D09DE00320C003716820
:1005300001400120C003814200D094E03068800770
:10054000059C03D5E068012800D002E13068F8215D
:1005500088432169C90001433160059C2078000768
:1005600024D42078400737D42078C00600D4D3E0C4
:1005700005984069411D00D1C2E0012800D030E15A
:10058000706B042101437163706B0121014371633E
:10059000FFF778FE0546706B800700D5B4E0FFF7E3
:1005A00071FE411B03200229F5D9E4E1706AE1697B
:1005B000002900D181E0012108437062FFF762FE4B
:1005C0000546706A8007CCD4FFF75CFE401B02280A
:1005D000F7D9032007B0F0BD012003900107F069AF
:1005E0000840029006D1F0690843F061F0690840C4
:1005F000069006980191E14F3868C0054AD40398E7
:100600000402386820433860FFF73CFE054638682E
:1006100020423FD1FFF736FE401B6428F7D9032064
:1006200007B0F0BD71680140082908D10320C0035C
:100630007168014001200004814200D161E76168D6
:1006400001204704002900D117E1052900D12BE141
:10065000012900D12CE1010432688A43326081040F
:100660003068884327E13068059CE168002936D06E
:10067000012108433060FFF705FE0546306880071A
:1006800000D563E7FFF7FEFD401B0228F6D90320E3
:1006900007B0F0BD05988068002800D1B6E00528B5
:1006A00000D1C9E0012800D1CAE0306A039988432B
:1006B0003062306A04218843C5E0012188437062BA
:1006C000FFF7E0FD0546706A800700D449E7FFF7B1
:1006D000D9FD401B0228F6D9032007B0F0BD012147
:1006E00088433060FFF7CEFD05463068800700D4B0
:1006F00033E7FFF7C7FD411B03200229F5D93AE193
:10070000706B042188437063706BF82188430599EE
:100710008969C900014371630598007880060BD58B
:1007200071680C2001400C2939D1706B800303D50E
:100730000598006A01280CD10598446A002C00D164
:10074000E1E070680C210140082905D1012C00D09E
:10075000C4E0049807B0F0BD01200206316804929D
:10076000914331604706FFF78DFD0546022C0BD102
:10077000049C3068384200D1DEE0FFF783FD411B66
:1007800003200229F5D9F6E03068384200D1BAE0FA
:10079000FFF778FD411B03200229F5D9EBE07168D2
:1007A0000140082905D10320C0037168014081423E
:1007B000BBD0706B0599096A002900D1A9E001211D
:1007C0000A04104370634C04FFF75CFD0546706B30
:1007D0002042B1D1FFF756FD411B03200229F6D973
:1007E000C9E0706B042101437163706B0121884380
:1007F0007063FFF747FD0546706B80078CD5FFF7E8
:1008000041FD411B03200229F6D9B4E0306A039967
:1008100088433062306A042188433062584CFFF7C5
:1008200031FD0546306A80071DD5FFF72BFD411BC2
:100830000320A142F6D99EE0306A042101433162CF
:10084000306A0399084330624D4CFFF71BFD0546A3
:10085000306A800707D4FFF715FD401BA042F7D987
:10086000032007B0F0BD02980028059C00D07BE66D
:10087000F06901998843F06176E6010432688A43A1
:1008800032608004316881433160FFF7FBFC05462C
:10089000059C3068384200D13AE6FFF7F3FC411B73
:1008A00003206429F5D966E0810432680A43326086
:1008B0000104306808433060FFF7E4FC0546306807
:1008C000384200D024E6FFF7DDFC401B6428F6D94F
:1008D000032007B0F0BDC046001002400320C20351
:1008E00070680240F16A059CA36A9A42049D0DD18A
:1008F0000F221140236B994208D191040840E16A0C
:100900008842284637D1002007B0F0BD284607B0FE
:10091000F0BD01210A04904370634C04FFF7B2FC60
:100920000546706B204200D106E7FFF7ABFC411B88
:1009300003200229F5D91EE0F06A0F218843059AA9
:10094000116B0143F1627B20C00371688143D06A5F
:100950000843916A01437160306820433060FFF7BB
:1009600091FC044630683842CDD1FFF78BFC011B67
:1009700003200229F6D907B0F0BDC0460070004040
:1009800088130000401E010E01D001207047074966
:10099000074A5060074803680B400321890759182C
:1009A000016000209060072111607047FFFFFF0089
:1009B00010E000E020ED00E0FEE7FEE77047704742
:1009C00080B5FFF763FC80BD70470000F0B581B0D3
:1009D000009105460520FFF745FC354908461438C7
:1009E0000268344B134003600268334B13430360C7
:1009F0000122930206689E430660530306681E4365
:100A000006600F6802231F400C6810263440E4196A
:100A100011D10C681C400F6837403C190BD10C6891
:100A20001C400F6837403C1905D10C681C400F680A
:100A300037403C19E5D00C68E40603D40C68A407E1
:100A400000D50D610C681C400D6835402C1911D182
:100A50000C681C400D6835402C190BD10C681C40EB
:100A60000D6835402C1905D10C681C400D683540C7
:100A70002C19E7D00B68DB0604D40B689B0701D563
:100A8000009B0B610B685B0608D40B685B0605D402
:100A90000B685B0602D40B685B06F3D50968490650
:100AA00003D5910302680A43026001B0F0BDC0465D
:100AB0001858004000FC80FFD20002009EB0FFF7F3
:100AC000EFFB11A80C90001D3021FFF793FB0024D1
:100AD0001A941026159601271497022511950C9843
:100AE000FFF7FCFC002803D0EFF3108072B6FEE79E
:100AF00010940F940E9407200C900D900DA8214691
:100B0000FFF72EFC002803D0EFF3108072B6FEE74B
:100B10000394032008908004DE490A6802430A60B7
:100B2000BA05019288681043886005200990000387
:100B3000D94B194618390A6802430A601A46143A12
:100B400014680497C027BC4314601C46103C2768F7
:100B5000874327600F200A90070318460C38036864
:100B6000BB430360099B1B0406910F681F430F6082
:100B700008990F02114607921268BA430A60226868
:100B80009A4322600A9A120403689343036004980C
:100B9000C205C24F38680292104338603868019924
:100BA000884338600498C0027A6802437A600498E7
:100BB00000037A6A02437A620C9840037A6A82439D
:100BC0007A620498C0063A6802433A600498800644
:100BD0003A6882433A600498420378680C92104362
:100BE0007860099908057A6A02437A6248057A6A48
:100BF00082437A62049800073A6802433A60049894
:100C000040073A6882433A600498820378689043C8
:100C10007860B86908921043B861049F0699086823
:100C2000384308600868A843086007990868B84313
:100C300008609949086838430860994C204608388C
:100C40000168984A0A43026020461838016839430F
:100C5000016020200A99FFF7B9FEB8020790FF2033
:100C6000000209900B950BE0580219068A4B1A688E
:100C70000A431A601968014319606420FFF7F2FA09
:100C80000520FFF7EFFA2246143A1068864908401B
:100C90001060106885490843106010688449084056
:100CA000106010680C990843106020682840216883
:100CB0003140081811D120682840216831400818B7
:100CC0000BD12068284021683140081805D12068E0
:100CD0002840216831400818E7D02068C00604D4B5
:100CE0002068800701D5282020612068400608D4AC
:100CF0002068400605D42068400602D420684006DB
:100D0000F3D5206840060FD5106867490840106089
:100D1000106866490843106010680799084310601E
:100D200010680C9908431060206804273840216837
:100D30003140081811D12068384021683140081826
:100D40000BD12068384021683140081805D120684F
:100D50003840216831400818E6D02068C00600D429
:100D600020682068400608D42068400605D4206822
:100D7000400602D420684006F3D520684006039B55
:100D800004D5E368106808990843106006930520AD
:100D90000A92FFF767FA0A9A1068F1490840106052
:100DA0001068EE49084310601068F0490840106070
:100DB00010680C9908431060206828402168314071
:100DC000081811D1206828402168314008180BD13B
:100DD0002068284021683140081805D12068284043
:100DE000216831400818E7D02068C00604D4206884
:100DF000800701D5292020612068400608D420689A
:100E0000400605D42068400602D420684006F3D589
:100E1000206840060FD51068D1490840106010685E
:100E2000CE490843106010680799084310601068A5
:100E30000C99084310602068384021683140081838
:100E400011D1206838402168314008180BD1206842
:100E5000384021683140081805D1206838402168A1
:100E600031400818E7D02068C00600D42068206808
:100E7000400608D42068400605D42068400602D405
:100E800020684006F3D52068400613D40020059062
:100E900016E0C0461410024018080048000400483C
:100EA00018580040130F421000FC80FFD2000100D0
:100EB000FFFBFFFFE0680590106808990843106089
:100EC00015460520FFF7CEF92868A5490840286097
:100ED0002868A249084328602868A4490840286077
:100EE00028680C99084328600698C0B206900598B7
:100EF00000022B460B9D2168294022683240511880
:100F000011D1216829402268324051180BD1216843
:100F1000294022683240511805D1216829402268B1
:100F200032405118E7D02168C90604D421688907E6
:100F300001D52A21216109990840069908430690A4
:100F40002068400608D42068400605D42068400682
:100F500002D420684006F3D5206840060FD51868F3
:100F60007F490840186018687C4908431860186871
:100F700007990843186018680C990843186020689E
:100F8000384021683140081811D120683840216864
:100F9000314008180BD120683840216831400818CA
:100FA00005D120683840216831400818E7D0206812
:100FB000C00600D420682068400608D42068400697
:100FC00005D42068400602D420684006F3D5206886
:100FD000400602D40020059005E0E06805901868FE
:100FE0000899084318601D460520FFF73BF928685B
:100FF0005B490840286028685849084328602868E9
:101000005A490840286028680C99084328602A46F5
:101010000B9D2068284021683140081811D12068B4
:1010200028402168314008180BD1206828402168E9
:101030003140081805D1206828402168314008183F
:10104000E7D02068C00604D42068800701D52B2093
:1010500020612068400608D42068400605D4206836
:10106000400602D420684006F3D5206840060FD51C
:1010700010683B4908401060106838490843106008
:10108000106807990843106010680C9908431060B5
:101090002068384021683140081811D12068384054
:1010A0002168314008180BD1206838402168314050
:1010B000081805D120683840216831400818E7D069
:1010C0002068C00600D42068049B234F2068400697
:1010D00008D42068400605D42068400602D4206861
:1010E0004006F3D52068400601D4002006E0E06801
:1010F0000A9D2968089A114329600B9D00020999ED
:1011000008400599C9B2401817494118B94202D29E
:101110004021029806E013494018791C884209D200
:10112000802001990B4F3A680A433A6039680143BD
:101130003960094F0C4806990818B84200D293E567
:1011400008480818791C884200D396E55806190209
:101150008CE5C046180800482E780000D200010037
:1011600000FC80FF0080FFFF2FF8FFFFFFFBFFFF69
:1011700043088B421AD3002203098B4279D3030A16
:101180008B425ED3030B8B4242D3030C8B4227D39B
:101190000902FF2212BA030C8B4202D31212090277
:1011A00003D0030B8B4233D31AE0D3E0411A8041C2
:1011B000401C704703460B4371D443088B42F5D360
:1011C000002203098B4254D3030A8B4239D3030B09
:1011D0008B421DD3030C8B4202D394466EE0090A66
:1011E000C30B8B4201D3CB03C01A5241830B8B42FA
:1011F00001D38B03C01A5241430B8B4201D34B03E3
:10120000C01A5241030B8B4201D30B03C01A524147
:10121000C30A8B4201D3CB02C01A5241830A8B42CC
:1012200001D38B02C01A5241430A8B4201D34B02B5
:10123000C01A5241030A8B4201D30B02C01A524119
:10124000CDD2C3098B4201D3CB01C01A52418309CD
:101250008B4201D38B01C01A524143098B4201D307
:101260004B01C01A524103098B4201D30B01C01A32
:101270005241C3088B4201D3CB00C01A52418308AC
:101280008B4201D38B00C01A524143088B4201D3D9
:101290004B00C01A5241411A524110007047CA0F08
:1012A00000D04942031000D34042534000229C46E4
:1012B00003098B422DD3030A8B4212D38901FC22EE
:1012C00012BA030A8B420CD3890192118B4208D3C4
:1012D000890192118B4204D3890137D0921100E029
:1012E0008909C3098B4201D3CB01C01A524183093A
:1012F0008B4201D38B01C01A524143098B4201D367
:101300004B01C01A524103098B4201D30B01C01A91
:101310005241C3088B4201D3CB00C01A524183080B
:101320008B4201D38B00C01A5241D9D243088B4261
:1013300001D34B00C01A5241411A00D2014652411A
:10134000104663465B1000D34042704763465B1013
:1013500000D3404201B50021004201D0C9430846F4
:10136000C046C04602BD00000000000000000102AF
:1013700003040607080902030405060708090A0B07
:101380000C0D0E0F10100102030405060708090AD0
:101390000B0C0D0E0F100000B81300080000002009
:1013A000100000001C010008C813000810000020F5
:1013B000680600003C010008010000000400000075
:0813C00000127A000000000099
:04000005080000C12E
:00000001FF
